{
    "contractName": "LoanFactory",
    "abi": [
        {
            "inputs": [],
            "stateMutability": "nonpayable",
            "type": "constructor"
        },
        {
            "inputs": [],
            "name": "createLoan",
            "outputs": [],
            "stateMutability": "nonpayable",
            "type": "function"
        },
        {
            "inputs": [],
            "name": "getLoans",
            "outputs": [
                {
                    "internalType": "contract Loan[]",
                    "name": "",
                    "type": "address[]"
                }
            ],
            "stateMutability": "view",
            "type": "function"
        },
        {
            "inputs": [
                {
                    "internalType": "address",
                    "name": "loanAddress",
                    "type": "address"
                }
            ],
            "name": "withdraw",
            "outputs": [],
            "stateMutability": "nonpayable",
            "type": "function"
        }
    ],
    "bytecode": "608060405234801561001057600080fd5b5061034b806100206000396000f3fe608060405234801561001057600080fd5b50600436106100415760003560e01c806351cff8d91461004657806365ec1a4514610059578063aa4a871114610061575b600080fd5b610057610054366004610171565b50565b005b61005761007f565b610069610102565b60405161007691906101a1565b60405180910390f35b6000606460405161008f90610164565b908152602001604051809103906000f0801580156100b1573d6000803e3d6000fd5b50600080546001810182559080527f290decd9548b62a8d60345a988386fc84ba6bc95484008f6362f93160ef3e5630180546001600160a01b0319166001600160a01b039290921691909117905550565b6060600080548060200260200160405190810160405280929190818152602001828054801561015a57602002820191906000526020600020905b81546001600160a01b0316815260019091019060200180831161013c575b5050505050905090565b610127806101ef83390190565b60006020828403121561018357600080fd5b81356001600160a01b038116811461019a57600080fd5b9392505050565b6020808252825182820181905260009190848201906040850190845b818110156101e25783516001600160a01b0316835292840192918401916001016101bd565b5090969550505050505056fe608060405234801561001057600080fd5b5060405161012738038061012783398101604081905261002f91610049565b600080546001600160a01b03191633179055600155610062565b60006020828403121561005b57600080fd5b5051919050565b60b7806100706000396000f3fe6080604052348015600f57600080fd5b506004361060285760003560e01c80633ccfd60b14602d575b600080fd5b60336035565b005b6000546001600160a01b03163314607f5760405162461bcd60e51b815260206004820152600a60248201526927b7363c9037bbb732b960b11b604482015260640160405180910390fd5b56fea264697066735822122096c981648c3b67bc89ca7dae4bd46c9c98216ba7dd697a3f44c3f7b53b6659c664736f6c63430008110033a26469706673582212202bfc92eb26dda4786b25f6311bfce139997f3c012c8cbe8bf70383bbdd3ce8c764736f6c63430008110033",
    "sourcePath": "/Users/krishna/work/solidity/smart_c_programmer/contracts/ContractFactory.sol",
    "compiler": {
        "name": "solc",
        "version": "0.8.17+commit.8df45f5f"
    },
    "functionHashes": {
        "createLoan()": "65ec1a45",
        "getLoans()": "aa4a8711",
        "withdraw(address)": "51cff8d9"
    },
    "gasEstimates": {
        "creation": {
            "codeDepositCost": "168600",
            "executionCost": "214",
            "totalCost": "168814"
        },
        "external": {
            "createLoan()": "infinite",
            "getLoans()": "infinite",
            "withdraw(address)": "235"
        }
    }
}